{
  "contractName": "SupplyChain",
  "abi": [
    {
      "inputs": [],
      "stateMutability": "nonpayable",
      "type": "constructor"
    },
    {
      "anonymous": false,
      "inputs": [
        {
          "indexed": true,
          "internalType": "address",
          "name": "actorAddress",
          "type": "address"
        },
        {
          "indexed": false,
          "internalType": "string",
          "name": "name",
          "type": "string"
        },
        {
          "indexed": false,
          "internalType": "string",
          "name": "actorType",
          "type": "string"
        }
      ],
      "name": "ActorRegistered",
      "type": "event"
    },
    {
      "anonymous": false,
      "inputs": [
        {
          "indexed": true,
          "internalType": "uint256",
          "name": "productId",
          "type": "uint256"
        },
        {
          "indexed": false,
          "internalType": "string",
          "name": "name",
          "type": "string"
        },
        {
          "indexed": true,
          "internalType": "address",
          "name": "farmer",
          "type": "address"
        }
      ],
      "name": "ProductCreated",
      "type": "event"
    },
    {
      "anonymous": false,
      "inputs": [
        {
          "indexed": true,
          "internalType": "uint256",
          "name": "productId",
          "type": "uint256"
        },
        {
          "indexed": false,
          "internalType": "enum SupplyChain.State",
          "name": "newState",
          "type": "uint8"
        },
        {
          "indexed": true,
          "internalType": "address",
          "name": "actor",
          "type": "address"
        }
      ],
      "name": "ProductStateChanged",
      "type": "event"
    },
    {
      "anonymous": false,
      "inputs": [
        {
          "indexed": true,
          "internalType": "uint256",
          "name": "productId",
          "type": "uint256"
        },
        {
          "indexed": true,
          "internalType": "address",
          "name": "from",
          "type": "address"
        },
        {
          "indexed": true,
          "internalType": "address",
          "name": "to",
          "type": "address"
        }
      ],
      "name": "ProductTransferred",
      "type": "event"
    },
    {
      "anonymous": false,
      "inputs": [
        {
          "indexed": true,
          "internalType": "uint256",
          "name": "productId",
          "type": "uint256"
        },
        {
          "indexed": false,
          "internalType": "string",
          "name": "certificate",
          "type": "string"
        }
      ],
      "name": "QualityCertificateAdded",
      "type": "event"
    },
    {
      "inputs": [
        {
          "internalType": "address",
          "name": "",
          "type": "address"
        },
        {
          "internalType": "uint256",
          "name": "",
          "type": "uint256"
        }
      ],
      "name": "actorProducts",
      "outputs": [
        {
          "internalType": "uint256",
          "name": "",
          "type": "uint256"
        }
      ],
      "stateMutability": "view",
      "type": "function",
      "constant": true
    },
    {
      "inputs": [
        {
          "internalType": "address",
          "name": "",
          "type": "address"
        }
      ],
      "name": "actors",
      "outputs": [
        {
          "internalType": "address",
          "name": "actorAddress",
          "type": "address"
        },
        {
          "internalType": "string",
          "name": "name",
          "type": "string"
        },
        {
          "internalType": "string",
          "name": "location",
          "type": "string"
        },
        {
          "internalType": "string",
          "name": "actorType",
          "type": "string"
        },
        {
          "internalType": "bool",
          "name": "isActive",
          "type": "bool"
        },
        {
          "internalType": "uint256",
          "name": "registrationDate",
          "type": "uint256"
        }
      ],
      "stateMutability": "view",
      "type": "function",
      "constant": true
    },
    {
      "inputs": [
        {
          "internalType": "uint256",
          "name": "",
          "type": "uint256"
        }
      ],
      "name": "allActors",
      "outputs": [
        {
          "internalType": "address",
          "name": "",
          "type": "address"
        }
      ],
      "stateMutability": "view",
      "type": "function",
      "constant": true
    },
    {
      "inputs": [
        {
          "internalType": "uint256",
          "name": "",
          "type": "uint256"
        }
      ],
      "name": "allProductIds",
      "outputs": [
        {
          "internalType": "uint256",
          "name": "",
          "type": "uint256"
        }
      ],
      "stateMutability": "view",
      "type": "function",
      "constant": true
    },
    {
      "inputs": [],
      "name": "owner",
      "outputs": [
        {
          "internalType": "address",
          "name": "",
          "type": "address"
        }
      ],
      "stateMutability": "view",
      "type": "function",
      "constant": true
    },
    {
      "inputs": [
        {
          "internalType": "uint256",
          "name": "",
          "type": "uint256"
        },
        {
          "internalType": "uint256",
          "name": "",
          "type": "uint256"
        }
      ],
      "name": "productHistory",
      "outputs": [
        {
          "internalType": "enum SupplyChain.State",
          "name": "newState",
          "type": "uint8"
        },
        {
          "internalType": "uint256",
          "name": "timestamp",
          "type": "uint256"
        },
        {
          "internalType": "address",
          "name": "actor",
          "type": "address"
        },
        {
          "internalType": "string",
          "name": "location",
          "type": "string"
        },
        {
          "internalType": "string",
          "name": "notes",
          "type": "string"
        }
      ],
      "stateMutability": "view",
      "type": "function",
      "constant": true
    },
    {
      "inputs": [
        {
          "internalType": "uint256",
          "name": "",
          "type": "uint256"
        },
        {
          "internalType": "uint256",
          "name": "",
          "type": "uint256"
        }
      ],
      "name": "productOwnershipHistory",
      "outputs": [
        {
          "internalType": "address",
          "name": "",
          "type": "address"
        }
      ],
      "stateMutability": "view",
      "type": "function",
      "constant": true
    },
    {
      "inputs": [
        {
          "internalType": "uint256",
          "name": "",
          "type": "uint256"
        }
      ],
      "name": "products",
      "outputs": [
        {
          "internalType": "uint256",
          "name": "productId",
          "type": "uint256"
        },
        {
          "internalType": "string",
          "name": "name",
          "type": "string"
        },
        {
          "internalType": "string",
          "name": "description",
          "type": "string"
        },
        {
          "internalType": "enum SupplyChain.ProduceType",
          "name": "produceType",
          "type": "uint8"
        },
        {
          "internalType": "uint256",
          "name": "quantity",
          "type": "uint256"
        },
        {
          "internalType": "uint256",
          "name": "price",
          "type": "uint256"
        },
        {
          "internalType": "uint256",
          "name": "harvestDate",
          "type": "uint256"
        },
        {
          "internalType": "uint256",
          "name": "expiryDate",
          "type": "uint256"
        },
        {
          "internalType": "string",
          "name": "originFarm",
          "type": "string"
        },
        {
          "internalType": "string",
          "name": "qualityCertificates",
          "type": "string"
        },
        {
          "internalType": "address",
          "name": "currentOwner",
          "type": "address"
        },
        {
          "internalType": "enum SupplyChain.State",
          "name": "currentState",
          "type": "uint8"
        },
        {
          "internalType": "bool",
          "name": "exists",
          "type": "bool"
        }
      ],
      "stateMutability": "view",
      "type": "function",
      "constant": true
    },
    {
      "inputs": [
        {
          "internalType": "string",
          "name": "_name",
          "type": "string"
        },
        {
          "internalType": "string",
          "name": "_location",
          "type": "string"
        },
        {
          "internalType": "string",
          "name": "_actorType",
          "type": "string"
        }
      ],
      "name": "registerActor",
      "outputs": [],
      "stateMutability": "nonpayable",
      "type": "function"
    },
    {
      "inputs": [
        {
          "internalType": "string",
          "name": "_name",
          "type": "string"
        },
        {
          "internalType": "string",
          "name": "_description",
          "type": "string"
        },
        {
          "internalType": "enum SupplyChain.ProduceType",
          "name": "_produceType",
          "type": "uint8"
        },
        {
          "internalType": "uint256",
          "name": "_quantity",
          "type": "uint256"
        },
        {
          "internalType": "uint256",
          "name": "_price",
          "type": "uint256"
        },
        {
          "internalType": "uint256",
          "name": "_expiryDate",
          "type": "uint256"
        },
        {
          "internalType": "string",
          "name": "_originFarm",
          "type": "string"
        }
      ],
      "name": "createProduct",
      "outputs": [
        {
          "internalType": "uint256",
          "name": "",
          "type": "uint256"
        }
      ],
      "stateMutability": "nonpayable",
      "type": "function"
    },
    {
      "inputs": [
        {
          "internalType": "uint256",
          "name": "_productId",
          "type": "uint256"
        },
        {
          "internalType": "enum SupplyChain.State",
          "name": "_newState",
          "type": "uint8"
        },
        {
          "internalType": "string",
          "name": "_notes",
          "type": "string"
        }
      ],
      "name": "changeProductState",
      "outputs": [],
      "stateMutability": "nonpayable",
      "type": "function"
    },
    {
      "inputs": [
        {
          "internalType": "uint256",
          "name": "_productId",
          "type": "uint256"
        },
        {
          "internalType": "address",
          "name": "_newOwner",
          "type": "address"
        }
      ],
      "name": "transferProduct",
      "outputs": [],
      "stateMutability": "nonpayable",
      "type": "function"
    },
    {
      "inputs": [
        {
          "internalType": "uint256",
          "name": "_productId",
          "type": "uint256"
        },
        {
          "internalType": "string",
          "name": "_certificate",
          "type": "string"
        }
      ],
      "name": "addQualityCertificate",
      "outputs": [],
      "stateMutability": "nonpayable",
      "type": "function"
    },
    {
      "inputs": [
        {
          "internalType": "uint256",
          "name": "_productId",
          "type": "uint256"
        }
      ],
      "name": "purchaseProduct",
      "outputs": [],
      "stateMutability": "payable",
      "type": "function",
      "payable": true
    },
    {
      "inputs": [
        {
          "internalType": "uint256",
          "name": "_productId",
          "type": "uint256"
        }
      ],
      "name": "getProduct",
      "outputs": [
        {
          "components": [
            {
              "internalType": "uint256",
              "name": "productId",
              "type": "uint256"
            },
            {
              "internalType": "string",
              "name": "name",
              "type": "string"
            },
            {
              "internalType": "string",
              "name": "description",
              "type": "string"
            },
            {
              "internalType": "enum SupplyChain.ProduceType",
              "name": "produceType",
              "type": "uint8"
            },
            {
              "internalType": "uint256",
              "name": "quantity",
              "type": "uint256"
            },
            {
              "internalType": "uint256",
              "name": "price",
              "type": "uint256"
            },
            {
              "internalType": "uint256",
              "name": "harvestDate",
              "type": "uint256"
            },
            {
              "internalType": "uint256",
              "name": "expiryDate",
              "type": "uint256"
            },
            {
              "internalType": "string",
              "name": "originFarm",
              "type": "string"
            },
            {
              "internalType": "string",
              "name": "qualityCertificates",
              "type": "string"
            },
            {
              "internalType": "address",
              "name": "currentOwner",
              "type": "address"
            },
            {
              "internalType": "enum SupplyChain.State",
              "name": "currentState",
              "type": "uint8"
            },
            {
              "internalType": "bool",
              "name": "exists",
              "type": "bool"
            }
          ],
          "internalType": "struct SupplyChain.Product",
          "name": "",
          "type": "tuple"
        }
      ],
      "stateMutability": "view",
      "type": "function",
      "constant": true
    },
    {
      "inputs": [
        {
          "internalType": "uint256",
          "name": "_productId",
          "type": "uint256"
        }
      ],
      "name": "getProductHistory",
      "outputs": [
        {
          "components": [
            {
              "internalType": "enum SupplyChain.State",
              "name": "newState",
              "type": "uint8"
            },
            {
              "internalType": "uint256",
              "name": "timestamp",
              "type": "uint256"
            },
            {
              "internalType": "address",
              "name": "actor",
              "type": "address"
            },
            {
              "internalType": "string",
              "name": "location",
              "type": "string"
            },
            {
              "internalType": "string",
              "name": "notes",
              "type": "string"
            }
          ],
          "internalType": "struct SupplyChain.StateChange[]",
          "name": "",
          "type": "tuple[]"
        }
      ],
      "stateMutability": "view",
      "type": "function",
      "constant": true
    },
    {
      "inputs": [
        {
          "internalType": "address",
          "name": "_actor",
          "type": "address"
        }
      ],
      "name": "getActorProducts",
      "outputs": [
        {
          "internalType": "uint256[]",
          "name": "",
          "type": "uint256[]"
        }
      ],
      "stateMutability": "view",
      "type": "function",
      "constant": true
    },
    {
      "inputs": [
        {
          "internalType": "uint256",
          "name": "_productId",
          "type": "uint256"
        }
      ],
      "name": "getProductOwnershipHistory",
      "outputs": [
        {
          "internalType": "address[]",
          "name": "",
          "type": "address[]"
        }
      ],
      "stateMutability": "view",
      "type": "function",
      "constant": true
    },
    {
      "inputs": [],
      "name": "getAllProducts",
      "outputs": [
        {
          "internalType": "uint256[]",
          "name": "",
          "type": "uint256[]"
        }
      ],
      "stateMutability": "view",
      "type": "function",
      "constant": true
    },
    {
      "inputs": [],
      "name": "getAllActors",
      "outputs": [
        {
          "internalType": "address[]",
          "name": "",
          "type": "address[]"
        }
      ],
      "stateMutability": "view",
      "type": "function",
      "constant": true
    },
    {
      "inputs": [
        {
          "internalType": "address",
          "name": "_actor",
          "type": "address"
        }
      ],
      "name": "getActor",
      "outputs": [
        {
          "components": [
            {
              "internalType": "address",
              "name": "actorAddress",
              "type": "address"
            },
            {
              "internalType": "string",
              "name": "name",
              "type": "string"
            },
            {
              "internalType": "string",
              "name": "location",
              "type": "string"
            },
            {
              "internalType": "string",
              "name": "actorType",
              "type": "string"
            },
            {
              "internalType": "bool",
              "name": "isActive",
              "type": "bool"
            },
            {
              "internalType": "uint256",
              "name": "registrationDate",
              "type": "uint256"
            }
          ],
          "internalType": "struct SupplyChain.Actor",
          "name": "",
          "type": "tuple"
        }
      ],
      "stateMutability": "view",
      "type": "function",
      "constant": true
    },
    {
      "inputs": [
        {
          "internalType": "uint256",
          "name": "_productId",
          "type": "uint256"
        }
      ],
      "name": "isProductExpired",
      "outputs": [
        {
          "internalType": "bool",
          "name": "",
          "type": "bool"
        }
      ],
      "stateMutability": "view",
      "type": "function",
      "constant": true
    },
    {
      "inputs": [],
      "name": "getTotalProducts",
      "outputs": [
        {
          "internalType": "uint256",
          "name": "",
          "type": "uint256"
        }
      ],
      "stateMutability": "view",
      "type": "function",
      "constant": true
    },
    {
      "inputs": [],
      "name": "getTotalActors",
      "outputs": [
        {
          "internalType": "uint256",
          "name": "",
          "type": "uint256"
        }
      ],
      "stateMutability": "view",
      "type": "function",
      "constant": true
    }
  ],
  "bytecode": "0x6080806040523461003057600080546001600160a01b031916331790556001808055600255612f9490816100368239f35b600080fdfe608080604052600436101561001357600080fd5b60003560e01c90816302ee3a521461274a575080631d010ed5146126c657806338e76a03146123d65780633a7d2376146123365780633b0d4a55146122db5780634138d167146121ad5780634bfb179c14612005578063570aea8a14611fe757806357a096a114611e475780636102b37e14611df55780636983d39514611d5757806372fcd2bd146112d25780637acc0b20146111ab5780637dfae0f214610b555780638a93a6dc14610acd5780638da5cb5b14610aa45780639276ec7d14610a4c578063b9db15b4146107f6578063bfa9eb25146107d8578063d14edd471461040f578063dde1bbcf146103be578063e43059e51461022c578063eaa66a3c146101765763f04926481461012757600080fd5b346101715761013536612840565b906000526007602052604060002080548210156101715760209161015891612a35565b905460405160039290921b1c6001600160a01b03168152f35b600080fd5b34610171576020366003190112610171576001600160a01b0380610198612a4d565b1660005260046020526040600020908154166101b66001830161293a565b916101c36002820161293a565b61021b6101d26003840161293a565b61020d600560ff600487015416950154936101ff604051988998895260c060208a015260c0890190612a10565b908782036040890152612a10565b908582036060870152612a10565b911515608084015260a08301520390f35b34610171576040366003190112610171576001600160a01b036024358181169160043591838103610171578260005260206003815261027860ff600a6040600020015460a81c16612e9a565b836000526003815261029583600a60406000200154163314612edf565b846000526004815260ff600460406000200154161561036e5733851461032a5760069084600052600381526102ee600a60406000200193845494886001600160601b0360a01b8716179055600783526040600020612ac6565b8560005252610301836040600020612e65565b16907fcef86d37ba3dc1d682967cde44d8050488734bf53166725b220b4d2e515e9e93600080a4005b6064906040519062461bcd60e51b82526004820152601b60248201527f43616e6e6f74207472616e7366657220746f20796f757273656c6600000000006044820152fd5b6084906040519062461bcd60e51b825260048201526024808201527f4e6577206f776e6572206d75737420626520612072656769737465726564206160448201526331ba37b960e11b6064820152fd5b34610171576020366003190112610171576004356008548110156101715760209060086000527ff3f7a9fe364faab93b216da50a3214154f22a0a2b415b23a84c8169e8b636ee30154604051908152f35b34610171576040366003190112610171576001600160401b0360043560243582811161017157610443903690600401612a63565b81600052600360209080825261046660ff600a6040600020015460a81c16612e9a565b8360005280825261048860018060a01b03600a60406000200154163314612edf565b82511561079357836000528082526104a7600960406000200154612872565b15610660576104d394846000528183526104fd6002600960406000200160405198899187830190612b01565b6101d960f51b81528751906104ed828583018a8c016129ed565b0103601d19810189520187612919565b84600052818352600960406000200191865191821161064a576105208354612872565b601f8111610604575b508396601f831160011461058a5790600080516020612f3f8339815191529697839260009361057f575b50508260011b92600019911b1c19161790555b61057a604051928284938452830190612a10565b0390a2005b015191508880610553565b9196601f1988169284600052856000209360005b8181106105ed575091899391600080516020612f3f833981519152999a60019694106105d3575b50505050811b019055610566565b01519060f884600019921b161c19169055878080806105c5565b92948760018192888601518155019601930161059e565b8360005284600020601f840160051c810191868510610640575b601f0160051c01905b8181106106345750610529565b60008155600101610627565b909150819061061e565b634e487b7160e01b600052604160045260246000fd5b83600052808252600960406000200190835195861161064a576106838254612872565b601f811161074d575b5082601f87116001146106d657958091600080516020612f3f83398151915296976000926106cb575b508260011b92600019911b1c1916179055610566565b8601519150886106b5565b90601f1987169183600052846000209260005b8181106107365750916001939189600080516020612f3f833981519152999a941061071c575b505050811b019055610566565b8701519060f884600019921b161c1916905587808061070f565b91938660018192878b0151815501950192016106e9565b8260005283600020601f880160051c810191858910610789575b601f0160051c01905b81811061077d575061068c565b60008155600101610770565b9091508190610767565b60405162461bcd60e51b815260048101839052601b60248201527f43657274696669636174652063616e6e6f7420626520656d70747900000000006044820152606490fd5b34610171576000366003190112610171576020600954604051908152f35b34610171576020366003190112610171576000610180604051610818816128e2565b82815260606020820152606060408201528260608201528260808201528260a08201528260c08201528260e0820152606061010082015260606101208201528261014082015282610160820152015260043580600052600360205261088a60ff600a6040600020015460a81c16612e9a565b6000526003602052604060002060ff600a604051926108a8846128e2565b805484526108b86001820161293a565b60208501526108c96002820161293a565b60408501526108e18360038301541660608601612b84565b60048101546080850152600581015460a0850152600681015460c0850152600781015460e08501526109156008820161293a565b6101008501526109276009820161293a565b61012085015201546001600160a01b03811661014084015261095360a082901c83166101608501612b90565b60a81c16151561018082015260405180916020825280516020830152610180610a1761099060208401516101a060408701526101c0860190612a10565b610a006109af604086015192601f1993848983030160608a0152612a10565b6109c160608701516080890190612ab9565b608086015160a088015260a086015160c088015260c086015160e088015260e08601516101008801526101008601518388830301610120890152612a10565b906101208501519086830301610140870152612a10565b9160018060a01b0361014082015116610160850152610a3e610160820151838601906129e0565b015115156101a08301520390f35b3461017157604036600319011261017157610a65612a4d565b6001600160a01b031660009081526006602052604090208054602435919082101561017157602091610a9691612a35565b90546040519160031b1c8152f35b34610171576000366003190112610171576000546040516001600160a01b039091168152602090f35b3461017157602080600319360112610171576001600160a01b03610aef612a4d565b1660005260068152604060002090604051908181845491828152019360005281600020916000905b828210610b3e57610b3a85610b2e81890382612919565b604051918291826127c1565b0390f35b835486529485019460019384019390910190610b17565b34610171576060366003190112610171576004356001600160401b03811161017157610b85903690600401612a63565b6024356001600160401b03811161017157610ba4903690600401612a63565b906044356001600160401b03811161017157610bc4903690600401612a63565b9133600052600460205260ff600460406000200154166111665781511561112a578051156110e5578251156110a057604051610bff816128c7565b33815260208101918383526040820152836060820152600160808201524260a082015233600052600460205260406000209160018060a01b038251166001600160601b0360a01b845416178355518051906001600160401b03821161064a578190610c6d6001860154612872565b601f811161104d575b50602090601f8311600114610fdb57600092610fd0575b50508160011b916000199060031b1c19161760018301555b60408101518051906001600160401b03821161064a578190610cca6002860154612872565b601f8111610f7d575b50602090601f8311600114610f0b57600092610f00575b50508160011b916000199060031b1c19161760028301555b60608101518051906001600160401b03821161064a57610d256003850154612872565b601f8111610eb9575b50602090601f8311600114610e465791806005949260a094600092610e3b575b50508160011b916000199060031b1c19161760038501555b600484016080820151151560ff801983541691161790550151910155600954600160401b81101561064a576001810180600955811015610e25577f1d34bb903252bf77da396eadf6a332e7302eec0eca3687f9c2142bbd69e831d191610e169160096000527f6e1540171b6c0c960b71a7020d9f60077f6af931a8bbf590da0223dacf75c7af01336001600160601b0360a01b82541617905561057a604051928392604084526040840190612a10565b82810360208401523395612a10565b634e487b7160e01b600052603260045260246000fd5b015190508880610d4e565b90601f198316916003860160005260206000209260005b818110610ea1575092600192859260a0966005989610610e88575b505050811b016003850155610d66565b015160001960f88460031b161c19169055888080610e78565b92936020600181928786015181550195019301610e5d565b600385016000526020600020601f840160051c810160208510610ef9575b601f830160051c82018110610eed575050610d2e565b60008155600101610ed7565b5080610ed7565b015190508680610cea565b9250600285016000526020600020906000935b601f1984168510610f62576001945083601f19811610610f49575b505050811b016002830155610d02565b015160001960f88460031b161c19169055868080610f39565b81810151835560209485019460019093019290910190610f1e565b909150600285016000526020600020601f840160051c810160208510610fc9575b90849392915b601f830160051c82018110610fba575050610cd3565b60008155859450600101610fa4565b5080610f9e565b015190508680610c8d565b9250600185016000526020600020906000935b601f1984168510611032576001945083601f19811610611019575b505050811b016001830155610ca5565b015160001960f88460031b161c19169055868080611009565b81810151835560209485019460019093019290910190610fee565b909150600185016000526020600020601f840160051c810160208510611099575b90849392915b601f830160051c8201811061108a575050610c76565b60008155859450600101611074565b508061106e565b60405162461bcd60e51b815260206004820152601a60248201527f4163746f7220747970652063616e6e6f7420626520656d7074790000000000006044820152606490fd5b60405162461bcd60e51b815260206004820152601860248201527f4c6f636174696f6e2063616e6e6f7420626520656d70747900000000000000006044820152606490fd5b60405162461bcd60e51b81526020600482015260146024820152734e616d652063616e6e6f7420626520656d70747960601b6044820152606490fd5b60405162461bcd60e51b815260206004820152601860248201527f4163746f7220616c7265616479207265676973746572656400000000000000006044820152606490fd5b3461017157602036600319011261017157600435600052600360205260406000208054600182016111db9061293a565b916111e86002820161293a565b90600381015460ff1660048201549060058301546006840154600785015491600886016112149061293a565b946112216009880161293a565b96600a0154976040519a8b9a8b526101a08060208d01528b0161124391612a10565b8a810360408c015261125491612a10565b9460608a0161126291612ab9565b608089015260a088015260c087015260e086015284810361010086015261128891612a10565b83810361012085015261129a91612a10565b6001600160a01b038216610140840152906112c0610160840160ff60a084901c166129e0565b60a81c60ff1615156101808301520390f35b346101715760e0366003190112610171576004356001600160401b03811161017157611302903690600401612a63565b6024356001600160401b03811161017157611321903690600401612a63565b6044906006823510156101715760c4356001600160401b0381116101715761134d903690600401612a63565b33600052600460205260ff6004604060002001541615611ced57336000526004602052600360406000200160405161139b8161138d602082018095612b01565b03601f198101835282612919565b5190206040516020810190652330b936b2b960d11b8252600681526113bf816128fe565b51902003611ca957835115611c655760643515611c215760843515611bdd574260a4351115611b8f57600154926000198414611b795761142590600185016001556040519361140d856128e2565b85855286602086015260408501523560608401612b84565b606435608083015260843560a08301524260c083015260a43560e08301526101008201526040518060208101106001600160401b0360208301111761064a576020810160405260008152610120820152336101408201526000610160820152600161018082015281600052600360205260406000208151815560208201518051906001600160401b03821161064a5781906114c36001850154612872565b601f8111611b26575b50602090601f8311600114611ab457600092611aa9575b50508160011b916000199060031b1c19161760018201555b60408201518051906001600160401b03821161064a5781906115206002850154612872565b601f8111611a56575b50602090601f83116001146119e4576000926119d9575b50508160011b916000199060031b1c19161760028201555b6060820151600681101561182e57600382019060ff801983541691161790556080820151600482015560a0820151600582015560c0820151600682015560e082015160078201556101008201518051906001600160401b03821161064a5781906115c56008850154612872565b601f8111611986575b50602090601f831160011461191457600092611909575b50508160011b916000199060031b1c19161760088201555b6101208201518051906001600160401b03821161064a576116216009840154612872565b601f81116118c2575b50602090601f831160011461184f57600a93929160009183611844575b50508160011b916000199060031b1c19161760098201555b019060018060a01b03610140820151166001600160601b0360a01b83541617825561016081015190600582101561182e5761169d6101809284612b9c565b0151151581549060ff60a81b9060a81b169060ff60a81b19161790558060005260056020526117466040600020336000526004602052600260406000200190611701604051926116ec846128ac565b6000845242602085015233604085015261293a565b6060830152604051611712816128fe565b601d81527f50726f647563742068617276657374656420616e64206372656174656400000060208201526080830152612bc0565b80600052600760205261175d336040600020612ac6565b336000526006602052611774816040600020612e65565b60085491600160401b83101561064a576001830180600855831015610e25578160209360086000527ff3f7a9fe364faab93b216da50a3214154f22a0a2b415b23a84c8169e8b636ee30155817faf6ffb6277511513e7d579327cc1fc57f0266df2fb11a60b13487b8c9cd2c388604051858152806117f6339588830190612a10565b0390a360405160008152817f341aa48f481d1bfe6b0420acbbf708fb50d404d7339ae91fc75e51a77f1363cb843393a3604051908152f35b634e487b7160e01b600052602160045260246000fd5b015190508780611647565b906009840160005260206000209160005b601f19851681106118aa5750918391600193600a9695601f19811610611891575b505050811b01600982015561165f565b015160001960f88460031b161c19169055878080611881565b91926020600181928685015181550194019201611860565b600984016000526020600020601f840160051c810160208510611902575b601f830160051c820181106118f657505061162a565b600081556001016118e0565b50806118e0565b0151905086806115e5565b9250600884016000526020600020906000935b601f198416851061196b576001945083601f19811610611952575b505050811b0160088201556115fd565b015160001960f88460031b161c19169055868080611942565b81810151835560209485019460019093019290910190611927565b909150600884016000526020600020601f840160051c8101602085106119d2575b90849392915b601f830160051c820181106119c35750506115ce565b600081558594506001016119ad565b50806119a7565b015190508680611540565b9250600284016000526020600020906000935b601f1984168510611a3b576001945083601f19811610611a22575b505050811b016002820155611558565b015160001960f88460031b161c19169055868080611a12565b818101518355602094850194600190930192909101906119f7565b909150600284016000526020600020601f840160051c810160208510611aa2575b90849392915b601f830160051c82018110611a93575050611529565b60008155859450600101611a7d565b5080611a77565b0151905086806114e3565b9250600184016000526020600020906000935b601f1984168510611b0b576001945083601f19811610611af2575b505050811b0160018201556114fb565b015160001960f88460031b161c19169055868080611ae2565b81810151835560209485019460019093019290910190611ac7565b909150600184016000526020600020601f840160051c810160208510611b72575b90849392915b601f830160051c82018110611b635750506114cc565b60008155859450600101611b4d565b5080611b47565b634e487b7160e01b600052601160045260246000fd5b60405162461bcd60e51b815260206004820152602160248201527f4578706972792064617465206d75737420626520696e2074686520667574757281850152606560f81b6064820152608490fd5b60405162461bcd60e51b815260206004820152601c60248201527f5072696365206d7573742062652067726561746572207468616e20300000000081850152606490fd5b60405162461bcd60e51b815260206004820152601f60248201527f5175616e74697479206d7573742062652067726561746572207468616e20300081850152606490fd5b60405162461bcd60e51b815260206004820152601c60248201527f50726f64756374206e616d652063616e6e6f7420626520656d7074790000000081850152606490fd5b60405162461bcd60e51b815260206004820181905260248201527f4f6e6c79206661726d6572732063616e206372656174652070726f647563747381850152606490fd5b60405162461bcd60e51b815260206004820152603960248201527f4f6e6c79207265676973746572656420616e6420616374697665206163746f72818501527f732063616e20706572666f726d207468697320616374696f6e000000000000006064820152608490fd5b3461017157602080600319360112610171576004358060005260038252611d8b60ff600a6040600020015460a81c16612e9a565b60005260078152604060002090604051908181845491828152019360005281600020916000905b828210611dd557610b3a85611dc981890382612919565b604051918291826127fc565b83546001600160a01b031686529485019460019384019390910190611db2565b3461017157602036600319011261017157600435806000526003602052611e2960ff600a6040600020015460a81c16612e9a565b60005260036020526020600760406000200154421015604051908152f35b34610171576020366003190112610171576004358060005260039081602052611e7d60ff600a6040600020015460a81c16612e9a565b6000526005602052604060002080546001600160401b03811161064a5760405192611eae60208360051b0185612919565b818452602084019081936000526020600020906000925b848410611f7e57858760405191829160208301906020845251809152604083019060408160051b85010192916000905b828210611f0457505050500390f35b91936001919395506020611f6e8192603f198a82030186528851611f298282516129e0565b8381015184830152858060a01b036040820151166040830152611f5b6060808301519060a08091860152840190612a10565b9160808092015191818403910152612a10565b9601920192018594939192611ef5565b60056020600192604051611f91816128ac565b611f9f60ff88541682612b90565b8487015483820152848060a01b036002880154166040820152611fc386880161293a565b6060820152611fd46004880161293a565b6080820152815201930193019291611ec5565b34610171576000366003190112610171576020600854604051908152f35b34610171576060366003190112610171576024356004356005821015610171576044356001600160401b03811161017157612044903690600401612a63565b816000526020906003825261206660ff600a6040600020015460a81c16612e9a565b826000526003825261208960018060a01b03600a60406000200154163314612edf565b826000526003825260ff600a6040600020015460a01c16600581101561182e5760010160ff8111611b795760ff1660ff85160361216857906121567f341aa48f481d1bfe6b0420acbbf708fb50d404d7339ae91fc75e51a77f1363cb9284600052600383526120ff86600a604060002001612b9c565b8460005260058352604060002033600052600484526002604060002001916121476040519361212d856128ac565b6121378a86612b90565b428786015233604086015261293a565b60608401526080830152612bc0565b61216360405180956129e0565b3393a3005b60405162461bcd60e51b815260048101839052601860248201527f496e76616c6964207374617465207472616e736974696f6e00000000000000006044820152606490fd5b3461017157602080600319360112610171576121c7612a4d565b90604051906121d5826128c7565b60008252600060a060609384848201528460408201528480820152826080820152015260018060a01b03809316600052600481526040600020906122c86040519361221f856128c7565b8584541685526122316001850161293a565b908386019182526122b76122476002870161293a565b604088019081526122a361225d6003890161293a565b94848a01958652600560ff60048b0154169960808c019a15158b5201549760a08b019889526040519b8c9b828d525116908b01525160c060408b015260e08a0190612a10565b9051601f1993848a840301908a0152612a10565b915190868303016080870152612a10565b9151151560a08401525160c08301520390f35b34610171576020366003190112610171576004356009548110156101715760096000527f6e1540171b6c0c960b71a7020d9f60077f6af931a8bbf590da0223dacf75c7af01546040516001600160a01b039091168152602090f35b346101715761234436612840565b90600052600560205260406000208054821015610171576123ad9161236891612856565b50610b3a60ff825416916123c860018201549160018060a01b036002820154166123a060046123996003850161293a565b930161293a565b93604051978880986129e0565b6020870152604086015260a0606086015260a0850190612a10565b908382036080850152612a10565b6020806003193601126101715760043590816000526003815261240660ff600a6040600020015460a81c16612e9a565b8160005260038152604060002090600a8201805460ff8160a01c16600581101561182e5760030361266457600584019081549485341061262857600701544210156125ed576001600160a01b031693600090819081908190888282156125e4575bf1156125cf57548034116125a6575b5080546001600160a81b0319163317600160a21b17905560008381526005825260409081902090516124a7816128ac565b6004815242838201523360408201526040516124c2816128fe565b600881526721b7b739bab6b2b960c11b8482015260608201526040519160608301928084106001600160401b0385111761064a5761253a93604052602181527f50726f647563742070757263686173656420627920656e6420636f6e73756d6585820152603960f91b60408201526080830152612bc0565b8260005260078152612550336040600020612ac6565b827f341aa48f481d1bfe6b0420acbbf708fb50d404d7339ae91fc75e51a77f1363cb60405192600484523393a333917fcef86d37ba3dc1d682967cde44d8050488734bf53166725b220b4d2e515e9e93600080a4005b80340390348211611b795760008080938193829034146125db575b3390f1156125cf5784612476565b6040513d6000823e3d90fd5b506108fc6125c1565b506108fc612467565b60405162461bcd60e51b8152600481018590526013602482015272141c9bd91d58dd081a185cc8195e1c1a5c9959606a1b6044820152606490fd5b60405162461bcd60e51b8152600481018690526014602482015273125b9cdd59999a58da595b9d081c185e5b595b9d60621b6044820152606490fd5b60405162461bcd60e51b815260048101849052603460248201527f50726f64756374206d7573742062652072656365697665642062792072657461604482015273696c6572206265666f726520707572636861736560601b6064820152608490fd5b3461017157600036600319011261017157604051806009549182815260208091019260096000527f6e1540171b6c0c960b71a7020d9f60077f6af931a8bbf590da0223dacf75c7af916000905b82821061272a57610b3a85611dc981890382612919565b83546001600160a01b031686529485019460019384019390910190612713565b34610171576000366003190112610171576008549081815260208082019260086000527ff3f7a9fe364faab93b216da50a3214154f22a0a2b415b23a84c8169e8b636ee3916000905b8282106127aa57610b3a85610b2e81890382612919565b835486529485019460019384019390910190612793565b6020908160408183019282815285518094520193019160005b8281106127e8575050505090565b8351855293810193928101926001016127da565b6020908160408183019282815285518094520193019160005b828110612823575050505090565b83516001600160a01b031685529381019392810192600101612815565b6040906003190112610171576004359060243590565b8054821015610e25576000526005602060002091020190600090565b90600182811c921680156128a2575b602083101461288c57565b634e487b7160e01b600052602260045260246000fd5b91607f1691612881565b60a081019081106001600160401b0382111761064a57604052565b60c081019081106001600160401b0382111761064a57604052565b6101a081019081106001600160401b0382111761064a57604052565b604081019081106001600160401b0382111761064a57604052565b90601f801991011681019081106001600160401b0382111761064a57604052565b906040519182600082549261294e84612872565b9081845260019485811690816000146129bd575060011461297a575b505061297892500383612919565b565b9093915060005260209081600020936000915b8183106129a55750506129789350820101388061296a565b8554888401850152948501948794509183019161298d565b91505061297894506020925060ff191682840152151560051b820101388061296a565b90600582101561182e5752565b60005b838110612a005750506000910152565b81810151838201526020016129f0565b90602091612a29815180928185528580860191016129ed565b601f01601f1916010190565b8054821015610e255760005260206000200190600090565b600435906001600160a01b038216820361017157565b81601f82011215610171578035906001600160401b03821161064a5760405192612a97601f8401601f191660200185612919565b8284526020838301011161017157816000926020809301838601378301015290565b90600682101561182e5752565b8054600160401b81101561064a57612ae391600182018155612a35565b819291549060031b9160018060a01b03809116831b921b1916179055565b600092918154612b1081612872565b92600191808316908115612b695750600114612b2d575b50505050565b90919293945060005260209081600020906000915b858310612b585750505050019038808080612b27565b805485840152918301918101612b42565b60ff1916845250505081151590910201915038808080612b27565b600682101561182e5752565b600582101561182e5752565b90600581101561182e57815460ff60a01b191660a09190911b60ff60a01b16179055565b8054600160401b81101561064a57612bdf906001928382018155612856565b612e4f578251600581101561182e5760ff8019835416911617815560209081840151838201556002810160018060a01b036040860151166001600160601b0360a01b82541617905560038101916060850151918251936001600160401b039485811161064a57612c4f8254612872565b94601f95868111612e09575b508490868311600114612d9b5791806004949260809694600092612d90575b5050600019600383901b1c191690891b1790555b0195015190815193841161064a57612ca68654612872565b838111612d4a575b5080928411600114612ce75750928293918392600094612cdc575b50501b916000199060031b1c1916179055565b015192503880612cc9565b919083601f1981168760005284600020946000905b88838310612d305750505010612d17575b505050811b019055565b015160001960f88460031b161c19169055388080612d0d565b858701518855909601959485019487935090810190612cfc565b86600052816000208480870160051c820192848810612d87575b0160051c019086905b828110612d7b575050612cae565b60008155018690612d6d565b92508192612d64565b015190503880612c7a565b889291601f1983169185600052876000209260005b89828210612df35750509160809795939185600498969410612dda575b505050811b019055612c8e565b015160001960f88460031b161c19169055388080612dcd565b8385015186558d97909501949384019301612db0565b60008481528681208880860160051c820193898710612e46575b0160051c01918a905b838110612e3b57505050612c5b565b828155018a90612e2c565b93508193612e23565b634e487b7160e01b600052600060045260246000fd5b8054600160401b81101561064a57612e8291600182018155612a35565b819291549060031b91821b91600019901b1916179055565b15612ea157565b60405162461bcd60e51b8152602060048201526016602482015275141c9bd91d58dd08191bd95cc81b9bdd08195e1a5cdd60521b6044820152606490fd5b15612ee657565b60405162461bcd60e51b815260206004820152602a60248201527f4f6e6c792070726f64756374206f776e65722063616e20706572666f726d20746044820152693434b99030b1ba34b7b760b11b6064820152608490fdfeadf582bcb9a1c731a9eaec1887d44871e36e31a5d718c1a02282db10cfc17628a2646970667358221220c2d733212fdc0a07caff87411c1048e22af8abb107c237df93fecd5f4807843164736f6c63430008130033",
  "immutableReferences": {},
  "source": "// SPDX-License-Identifier: MIT\r\npragma solidity ^0.8.19;\r\n\r\n/**\r\n * @title SupplyChain\r\n * @dev A comprehensive supply chain management contract for farm produce\r\n * @author Your Name\r\n */\r\ncontract SupplyChain {\r\n    \r\n    // Enumerations\r\n    enum State { \r\n        Harvested,      // 0 - Just harvested by farmer\r\n        Processed,      // 1 - Processed by manufacturer\r\n        Shipped,        // 2 - Shipped by distributor\r\n        Received,       // 3 - Received by retailer\r\n        Sold           // 4 - Sold to end consumer\r\n    }\r\n    \r\n    enum ProduceType {\r\n        Fruits,\r\n        Vegetables,\r\n        Grains,\r\n        Dairy,\r\n        Meat,\r\n        Other\r\n    }\r\n    \r\n    // Structures\r\n    struct Actor {\r\n        address actorAddress;\r\n        string name;\r\n        string location;\r\n        string actorType; // \"Farmer\", \"Processor\", \"Distributor\", \"Retailer\"\r\n        bool isActive;\r\n        uint256 registrationDate;\r\n    }\r\n    \r\n    struct Product {\r\n        uint256 productId;\r\n        string name;\r\n        string description;\r\n        ProduceType produceType;\r\n        uint256 quantity; // in grams or units\r\n        uint256 price; // price per unit in wei\r\n        uint256 harvestDate;\r\n        uint256 expiryDate;\r\n        string originFarm;\r\n        string qualityCertificates;\r\n        address currentOwner;\r\n        State currentState;\r\n        bool exists;\r\n    }\r\n    \r\n    struct StateChange {\r\n        State newState;\r\n        uint256 timestamp;\r\n        address actor;\r\n        string location;\r\n        string notes;\r\n    }\r\n    \r\n    // State variables\r\n    address public owner;\r\n    uint256 private nextProductId;\r\n    uint256 private nextActorId;\r\n    \r\n    // Mappings\r\n    mapping(uint256 => Product) public products;\r\n    mapping(address => Actor) public actors;\r\n    mapping(uint256 => StateChange[]) public productHistory;\r\n    mapping(address => uint256[]) public actorProducts;\r\n    mapping(uint256 => address[]) public productOwnershipHistory;\r\n    \r\n    // Arrays for iteration\r\n    uint256[] public allProductIds;\r\n    address[] public allActors;\r\n    \r\n    // Events\r\n    event ActorRegistered(address indexed actorAddress, string name, string actorType);\r\n    event ProductCreated(uint256 indexed productId, string name, address indexed farmer);\r\n    event ProductStateChanged(uint256 indexed productId, State newState, address indexed actor);\r\n    event ProductTransferred(uint256 indexed productId, address indexed from, address indexed to);\r\n    event QualityCertificateAdded(uint256 indexed productId, string certificate);\r\n    \r\n    // Modifiers\r\n    modifier onlyOwner() {\r\n        require(msg.sender == owner, \"Only contract owner can perform this action\");\r\n        _;\r\n    }\r\n    \r\n    modifier onlyRegisteredActor() {\r\n        require(actors[msg.sender].isActive, \"Only registered and active actors can perform this action\");\r\n        _;\r\n    }\r\n    \r\n    modifier productExists(uint256 _productId) {\r\n        require(products[_productId].exists, \"Product does not exist\");\r\n        _;\r\n    }\r\n    \r\n    modifier onlyProductOwner(uint256 _productId) {\r\n        require(products[_productId].currentOwner == msg.sender, \"Only product owner can perform this action\");\r\n        _;\r\n    }\r\n    \r\n    modifier validStateTransition(uint256 _productId, State _newState) {\r\n        State currentState = products[_productId].currentState;\r\n        require(uint8(_newState) == uint8(currentState) + 1, \"Invalid state transition\");\r\n        _;\r\n    }\r\n    \r\n    // Constructor\r\n    constructor() {\r\n        owner = msg.sender;\r\n        nextProductId = 1;\r\n        nextActorId = 1;\r\n    }\r\n    \r\n    /**\r\n     * @dev Register a new actor in the supply chain\r\n     * @param _name Name of the actor\r\n     * @param _location Location of the actor\r\n     * @param _actorType Type of actor (Farmer, Processor, Distributor, Retailer)\r\n     */\r\n    function registerActor(\r\n        string memory _name,\r\n        string memory _location,\r\n        string memory _actorType\r\n    ) public {\r\n        require(!actors[msg.sender].isActive, \"Actor already registered\");\r\n        require(bytes(_name).length > 0, \"Name cannot be empty\");\r\n        require(bytes(_location).length > 0, \"Location cannot be empty\");\r\n        require(bytes(_actorType).length > 0, \"Actor type cannot be empty\");\r\n        \r\n        actors[msg.sender] = Actor({\r\n            actorAddress: msg.sender,\r\n            name: _name,\r\n            location: _location,\r\n            actorType: _actorType,\r\n            isActive: true,\r\n            registrationDate: block.timestamp\r\n        });\r\n        \r\n        allActors.push(msg.sender);\r\n        \r\n        emit ActorRegistered(msg.sender, _name, _actorType);\r\n    }\r\n    \r\n    /**\r\n     * @dev Create a new product (only farmers can create products initially)\r\n     * @param _name Name of the product\r\n     * @param _description Description of the product\r\n     * @param _produceType Type of produce\r\n     * @param _quantity Quantity in grams or units\r\n     * @param _price Price per unit in wei\r\n     * @param _expiryDate Expiry date timestamp\r\n     * @param _originFarm Origin farm name\r\n     */\r\n    function createProduct(\r\n        string memory _name,\r\n        string memory _description,\r\n        ProduceType _produceType,\r\n        uint256 _quantity,\r\n        uint256 _price,\r\n        uint256 _expiryDate,\r\n        string memory _originFarm\r\n    ) public onlyRegisteredActor returns (uint256) {\r\n        require(\r\n            keccak256(abi.encodePacked(actors[msg.sender].actorType)) == keccak256(abi.encodePacked(\"Farmer\")),\r\n            \"Only farmers can create products\"\r\n        );\r\n        require(bytes(_name).length > 0, \"Product name cannot be empty\");\r\n        require(_quantity > 0, \"Quantity must be greater than 0\");\r\n        require(_price > 0, \"Price must be greater than 0\");\r\n        require(_expiryDate > block.timestamp, \"Expiry date must be in the future\");\r\n        \r\n        uint256 productId = nextProductId++;\r\n        \r\n        products[productId] = Product({\r\n            productId: productId,\r\n            name: _name,\r\n            description: _description,\r\n            produceType: _produceType,\r\n            quantity: _quantity,\r\n            price: _price,\r\n            harvestDate: block.timestamp,\r\n            expiryDate: _expiryDate,\r\n            originFarm: _originFarm,\r\n            qualityCertificates: \"\",\r\n            currentOwner: msg.sender,\r\n            currentState: State.Harvested,\r\n            exists: true\r\n        });\r\n        \r\n        // Record initial state change\r\n        productHistory[productId].push(StateChange({\r\n            newState: State.Harvested,\r\n            timestamp: block.timestamp,\r\n            actor: msg.sender,\r\n            location: actors[msg.sender].location,\r\n            notes: \"Product harvested and created\"\r\n        }));\r\n        \r\n        // Track ownership and products\r\n        productOwnershipHistory[productId].push(msg.sender);\r\n        actorProducts[msg.sender].push(productId);\r\n        allProductIds.push(productId);\r\n        \r\n        emit ProductCreated(productId, _name, msg.sender);\r\n        emit ProductStateChanged(productId, State.Harvested, msg.sender);\r\n        \r\n        return productId;\r\n    }\r\n    \r\n    /**\r\n     * @dev Change the state of a product\r\n     * @param _productId ID of the product\r\n     * @param _newState New state of the product\r\n     * @param _notes Additional notes for the state change\r\n     */\r\n    function changeProductState(\r\n        uint256 _productId,\r\n        State _newState,\r\n        string memory _notes\r\n    ) public \r\n        productExists(_productId) \r\n        onlyProductOwner(_productId) \r\n        validStateTransition(_productId, _newState) \r\n    {\r\n        products[_productId].currentState = _newState;\r\n        \r\n        productHistory[_productId].push(StateChange({\r\n            newState: _newState,\r\n            timestamp: block.timestamp,\r\n            actor: msg.sender,\r\n            location: actors[msg.sender].location,\r\n            notes: _notes\r\n        }));\r\n        \r\n        emit ProductStateChanged(_productId, _newState, msg.sender);\r\n    }\r\n    \r\n    /**\r\n     * @dev Transfer ownership of a product\r\n     * @param _productId ID of the product\r\n     * @param _newOwner Address of the new owner\r\n     */\r\n    function transferProduct(uint256 _productId, address _newOwner) \r\n        public \r\n        productExists(_productId) \r\n        onlyProductOwner(_productId) \r\n    {\r\n        require(actors[_newOwner].isActive, \"New owner must be a registered actor\");\r\n        require(_newOwner != msg.sender, \"Cannot transfer to yourself\");\r\n        \r\n        address previousOwner = products[_productId].currentOwner;\r\n        products[_productId].currentOwner = _newOwner;\r\n        \r\n        // Update tracking arrays\r\n        productOwnershipHistory[_productId].push(_newOwner);\r\n        actorProducts[_newOwner].push(_productId);\r\n        \r\n        emit ProductTransferred(_productId, previousOwner, _newOwner);\r\n    }\r\n    \r\n    /**\r\n     * @dev Add quality certificate to a product\r\n     * @param _productId ID of the product\r\n     * @param _certificate Quality certificate information\r\n     */\r\n    function addQualityCertificate(uint256 _productId, string memory _certificate) \r\n        public \r\n        productExists(_productId) \r\n        onlyProductOwner(_productId) \r\n    {\r\n        require(bytes(_certificate).length > 0, \"Certificate cannot be empty\");\r\n        \r\n        if (bytes(products[_productId].qualityCertificates).length > 0) {\r\n            products[_productId].qualityCertificates = string(\r\n                abi.encodePacked(products[_productId].qualityCertificates, \"; \", _certificate)\r\n            );\r\n        } else {\r\n            products[_productId].qualityCertificates = _certificate;\r\n        }\r\n        \r\n        emit QualityCertificateAdded(_productId, _certificate);\r\n    }\r\n    \r\n    /**\r\n     * @dev Purchase a product (final step in supply chain)\r\n     * @param _productId ID of the product to purchase\r\n     */\r\n    function purchaseProduct(uint256 _productId) \r\n        public \r\n        payable \r\n        productExists(_productId) \r\n    {\r\n        Product storage product = products[_productId];\r\n        require(product.currentState == State.Received, \"Product must be received by retailer before purchase\");\r\n        require(msg.value >= product.price, \"Insufficient payment\");\r\n        require(block.timestamp < product.expiryDate, \"Product has expired\");\r\n        \r\n        address retailer = product.currentOwner;\r\n        \r\n        // Transfer payment to current owner (retailer)\r\n        payable(retailer).transfer(product.price);\r\n        \r\n        // Return excess payment\r\n        if (msg.value > product.price) {\r\n            payable(msg.sender).transfer(msg.value - product.price);\r\n        }\r\n        \r\n        // Update product state\r\n        product.currentState = State.Sold;\r\n        product.currentOwner = msg.sender;\r\n        \r\n        // Record state change\r\n        productHistory[_productId].push(StateChange({\r\n            newState: State.Sold,\r\n            timestamp: block.timestamp,\r\n            actor: msg.sender,\r\n            location: \"Consumer\",\r\n            notes: \"Product purchased by end consumer\"\r\n        }));\r\n        \r\n        productOwnershipHistory[_productId].push(msg.sender);\r\n        \r\n        emit ProductStateChanged(_productId, State.Sold, msg.sender);\r\n        emit ProductTransferred(_productId, retailer, msg.sender);\r\n    }\r\n    \r\n    // View functions\r\n    \r\n    /**\r\n     * @dev Get product details\r\n     * @param _productId ID of the product\r\n     * @return Product details\r\n     */\r\n    function getProduct(uint256 _productId) \r\n        public \r\n        view \r\n        productExists(_productId) \r\n        returns (Product memory) \r\n    {\r\n        return products[_productId];\r\n    }\r\n    \r\n    /**\r\n     * @dev Get product history\r\n     * @param _productId ID of the product\r\n     * @return Array of state changes\r\n     */\r\n    function getProductHistory(uint256 _productId) \r\n        public \r\n        view \r\n        productExists(_productId) \r\n        returns (StateChange[] memory) \r\n    {\r\n        return productHistory[_productId];\r\n    }\r\n    \r\n    /**\r\n     * @dev Get products owned by an actor\r\n     * @param _actor Address of the actor\r\n     * @return Array of product IDs\r\n     */\r\n    function getActorProducts(address _actor) \r\n        public \r\n        view \r\n        returns (uint256[] memory) \r\n    {\r\n        return actorProducts[_actor];\r\n    }\r\n    \r\n    /**\r\n     * @dev Get ownership history of a product\r\n     * @param _productId ID of the product\r\n     * @return Array of owner addresses\r\n     */\r\n    function getProductOwnershipHistory(uint256 _productId) \r\n        public \r\n        view \r\n        productExists(_productId) \r\n        returns (address[] memory) \r\n    {\r\n        return productOwnershipHistory[_productId];\r\n    }\r\n    \r\n    /**\r\n     * @dev Get all product IDs\r\n     * @return Array of all product IDs\r\n     */\r\n    function getAllProducts() public view returns (uint256[] memory) {\r\n        return allProductIds;\r\n    }\r\n    \r\n    /**\r\n     * @dev Get all registered actors\r\n     * @return Array of all actor addresses\r\n     */\r\n    function getAllActors() public view returns (address[] memory) {\r\n        return allActors;\r\n    }\r\n    \r\n    /**\r\n     * @dev Get actor details\r\n     * @param _actor Address of the actor\r\n     * @return Actor details\r\n     */\r\n    function getActor(address _actor) public view returns (Actor memory) {\r\n        return actors[_actor];\r\n    }\r\n    \r\n    /**\r\n     * @dev Check if product is expired\r\n     * @param _productId ID of the product\r\n     * @return true if expired, false otherwise\r\n     */\r\n    function isProductExpired(uint256 _productId) \r\n        public \r\n        view \r\n        productExists(_productId) \r\n        returns (bool) \r\n    {\r\n        return block.timestamp >= products[_productId].expiryDate;\r\n    }\r\n    \r\n    /**\r\n     * @dev Get total number of products\r\n     * @return Total number of products created\r\n     */\r\n    function getTotalProducts() public view returns (uint256) {\r\n        return allProductIds.length;\r\n    }\r\n    \r\n    /**\r\n     * @dev Get total number of actors\r\n     * @return Total number of registered actors\r\n     */\r\n    function getTotalActors() public view returns (uint256) {\r\n        return allActors.length;\r\n    }\r\n}",
  "sourcePath": "D:\\Blockchain\\grootProject\\grootProject\\contracts\\SupplyChain.sol",
  "compiler": {
    "name": "solc",
    "version": "0.8.19+commit.7dd6d404.Emscripten.clang"
  },
  "schemaVersion": "3.4.16",
  "updatedAt": "2025-12-01T15:04:13.270Z",
  "networkType": "ethereum",
  "devdoc": {
    "author": "Your Name",
    "details": "A comprehensive supply chain management contract for farm produce",
    "kind": "dev",
    "methods": {
      "addQualityCertificate(uint256,string)": {
        "details": "Add quality certificate to a product",
        "params": {
          "_certificate": "Quality certificate information",
          "_productId": "ID of the product"
        }
      },
      "changeProductState(uint256,uint8,string)": {
        "details": "Change the state of a product",
        "params": {
          "_newState": "New state of the product",
          "_notes": "Additional notes for the state change",
          "_productId": "ID of the product"
        }
      },
      "createProduct(string,string,uint8,uint256,uint256,uint256,string)": {
        "details": "Create a new product (only farmers can create products initially)",
        "params": {
          "_description": "Description of the product",
          "_expiryDate": "Expiry date timestamp",
          "_name": "Name of the product",
          "_originFarm": "Origin farm name",
          "_price": "Price per unit in wei",
          "_produceType": "Type of produce",
          "_quantity": "Quantity in grams or units"
        }
      },
      "getActor(address)": {
        "details": "Get actor details",
        "params": {
          "_actor": "Address of the actor"
        },
        "returns": {
          "_0": "Actor details"
        }
      },
      "getActorProducts(address)": {
        "details": "Get products owned by an actor",
        "params": {
          "_actor": "Address of the actor"
        },
        "returns": {
          "_0": "Array of product IDs"
        }
      },
      "getAllActors()": {
        "details": "Get all registered actors",
        "returns": {
          "_0": "Array of all actor addresses"
        }
      },
      "getAllProducts()": {
        "details": "Get all product IDs",
        "returns": {
          "_0": "Array of all product IDs"
        }
      },
      "getProduct(uint256)": {
        "details": "Get product details",
        "params": {
          "_productId": "ID of the product"
        },
        "returns": {
          "_0": "Product details"
        }
      },
      "getProductHistory(uint256)": {
        "details": "Get product history",
        "params": {
          "_productId": "ID of the product"
        },
        "returns": {
          "_0": "Array of state changes"
        }
      },
      "getProductOwnershipHistory(uint256)": {
        "details": "Get ownership history of a product",
        "params": {
          "_productId": "ID of the product"
        },
        "returns": {
          "_0": "Array of owner addresses"
        }
      },
      "getTotalActors()": {
        "details": "Get total number of actors",
        "returns": {
          "_0": "Total number of registered actors"
        }
      },
      "getTotalProducts()": {
        "details": "Get total number of products",
        "returns": {
          "_0": "Total number of products created"
        }
      },
      "isProductExpired(uint256)": {
        "details": "Check if product is expired",
        "params": {
          "_productId": "ID of the product"
        },
        "returns": {
          "_0": "true if expired, false otherwise"
        }
      },
      "purchaseProduct(uint256)": {
        "details": "Purchase a product (final step in supply chain)",
        "params": {
          "_productId": "ID of the product to purchase"
        }
      },
      "registerActor(string,string,string)": {
        "details": "Register a new actor in the supply chain",
        "params": {
          "_actorType": "Type of actor (Farmer, Processor, Distributor, Retailer)",
          "_location": "Location of the actor",
          "_name": "Name of the actor"
        }
      },
      "transferProduct(uint256,address)": {
        "details": "Transfer ownership of a product",
        "params": {
          "_newOwner": "Address of the new owner",
          "_productId": "ID of the product"
        }
      }
    },
    "title": "SupplyChain",
    "version": 1
  },
  "userdoc": {
    "kind": "user",
    "methods": {},
    "version": 1
  }
}